:100000000C9414000C9433000C9433000C943300C3
:100010000C9433000C9433000C9433000C94330094
:100020000C9433000C94330011241FBECFEFD0E1A9
:10003000DEBFCDBF11E0A0E0B1E0EAE5F1E000E015
:100040000BBF02C007900D92AE30B107D9F721E087
:10005000AEE0B1E001C01D92AA37B207E1F70E94FD
:1000600065000C94AB000C9400005D9BFECF8CB936
:1000700080E090E008951F921FB61F9211248F9385
:100080008BB78F939F93EF93FF939CB180917301F4
:10009000E82FF0E0E15FFE4F9A3011F09D3081F4DF
:1000A00010821092730181E080930E01FF91EF9115
:1000B0009F918F918BBF8F911F901FBE1F9018959E
:1000C00090838F5F80937301F1CF80E091E0809304
:1000D0007601909377017894109290008FEC89B913
:1000E000599A8AB188698AB980910E018130E1F705
:1000F00010920E018FE091E00E947F00F5CF0F93E8
:100100001F93CF93DF93E0917601F09177012381E4
:10011000EC0100E010E021FD0EC00FEF1FEFC80161
:10012000DF91CF911F910F91089521960995892B09
:1001300011F00FEF1FEF88816091760170917701C8
:10014000DB011896ED91FD918111EFCF8AE00995C1
:0A015000892B29F3E2CFF894FFCFCA
:0E015A00000000020000000035000000000060
:00000001FF
