:100000000C9414000C9433000C9433000C943300C3
:100010000C9433000C9433000C9433000C94330094
:100020000C9433000C94330011241FBECFEFD0E1A9
:10003000DEBFCDBF11E0A0E0B1E0E0E7F1E000E01D
:100040000BBF02C007900D92AE30B107D9F721E087
:10005000AEE0B1E001C01D92AA37B207E1F70E94FD
:100060006A000C94B6000C9400005D9BFECF8CB926
:1000700080E090E008951F921FB61F9211248F9385
:100080008BB78F939F93EF93FF938CB1E0910E0109
:100090008A3011F08D3099F4F0E0E15FFE4F10826C
:1000A00010920E0181E080937301FF91EF919F9177
:1000B0008F918BBF8F911F901FBE1F901895E336B5
:1000C000A0F791E09E0F90930E01F0E0E15FFE4FEC
:1000D0008083EBCF109290008FEC89B9599A8AB146
:1000E00088618AB980919500866080939500579ABF
:1000F00080E091E0809376019093770178948091ED
:1001000073018130E1F7109273018FE091E00E945A
:100110008A00F5CF0F931F93CF93DF93E091760181
:10012000F09177012381EC0100E010E021FD0EC089
:100130000FEF1FEFC801DF91CF911F910F9108952D
:1001400021960995892B11F00FEF1FEF888160919F
:10015000760170917701DB011896ED91FD91811187
:10016000EFCF8AE00995892B29F3E2CFF894FFCFEE
:0E01700000000002000000003500000000004A
:00000001FF
